{
  "_format": "hh-sol-artifact-1",
  "contractName": "Query",
  "sourceName": "src/contracts/Query.sol",
  "abi": [
    {
      "anonymous": false,
      "inputs": [
        {
          "indexed": false,
          "internalType": "uint8",
          "name": "version",
          "type": "uint8"
        }
      ],
      "name": "Initialized",
      "type": "event"
    },
    {
      "anonymous": false,
      "inputs": [
        {
          "indexed": true,
          "internalType": "address",
          "name": "previousOwner",
          "type": "address"
        },
        {
          "indexed": true,
          "internalType": "address",
          "name": "newOwner",
          "type": "address"
        }
      ],
      "name": "OwnershipTransferred",
      "type": "event"
    },
    {
      "inputs": [],
      "name": "getValidUntil",
      "outputs": [
        {
          "internalType": "uint256",
          "name": "",
          "type": "uint256"
        }
      ],
      "stateMutability": "view",
      "type": "function"
    },
    {
      "inputs": [
        {
          "internalType": "address",
          "name": "_verifierContractAddress",
          "type": "address"
        },
        {
          "internalType": "address",
          "name": "_stateContractAddress",
          "type": "address"
        }
      ],
      "name": "initialize",
      "outputs": [],
      "stateMutability": "nonpayable",
      "type": "function"
    },
    {
      "inputs": [],
      "name": "owner",
      "outputs": [
        {
          "internalType": "address",
          "name": "",
          "type": "address"
        }
      ],
      "stateMutability": "view",
      "type": "function"
    },
    {
      "inputs": [],
      "name": "renounceOwnership",
      "outputs": [],
      "stateMutability": "nonpayable",
      "type": "function"
    },
    {
      "inputs": [],
      "name": "revocationStateExpirationTime",
      "outputs": [
        {
          "internalType": "uint256",
          "name": "",
          "type": "uint256"
        }
      ],
      "stateMutability": "view",
      "type": "function"
    },
    {
      "inputs": [
        {
          "internalType": "uint256",
          "name": "expirationTime",
          "type": "uint256"
        }
      ],
      "name": "setRevocationStateExpirationTime",
      "outputs": [],
      "stateMutability": "nonpayable",
      "type": "function"
    },
    {
      "inputs": [],
      "name": "state",
      "outputs": [
        {
          "internalType": "contract IState",
          "name": "",
          "type": "address"
        }
      ],
      "stateMutability": "view",
      "type": "function"
    },
    {
      "inputs": [
        {
          "internalType": "address",
          "name": "newOwner",
          "type": "address"
        }
      ],
      "name": "transferOwnership",
      "outputs": [],
      "stateMutability": "nonpayable",
      "type": "function"
    },
    {
      "inputs": [],
      "name": "verifier",
      "outputs": [
        {
          "internalType": "contract IVerifier",
          "name": "",
          "type": "address"
        }
      ],
      "stateMutability": "view",
      "type": "function"
    },
    {
      "inputs": [
        {
          "internalType": "uint256",
          "name": "holderId",
          "type": "uint256"
        },
        {
          "internalType": "uint256",
          "name": "issuerId",
          "type": "uint256"
        },
        {
          "internalType": "bytes",
          "name": "_proof",
          "type": "bytes"
        },
        {
          "internalType": "bytes32[]",
          "name": "_publicInputs",
          "type": "bytes32[]"
        }
      ],
      "name": "verify",
      "outputs": [
        {
          "internalType": "bool",
          "name": "r",
          "type": "bool"
        }
      ],
      "stateMutability": "view",
      "type": "function"
    }
  ],
  "bytecode": "0x608060405234801561001057600080fd5b506111c8806100206000396000f3fe608060405234801561001057600080fd5b50600436106100be5760003560e01c80637b91d78111610076578063c19d93fb1161005b578063c19d93fb1461018a578063e79ce794146101aa578063f2fde38b146101bd57600080fd5b80637b91d781146101645780638da5cb5b1461016c57600080fd5b8063485cc955116100a7578063485cc955146101245780636647b45714610139578063715018a61461015c57600080fd5b806323962482146100c35780632b7ac3f3146100df575b600080fd5b6100cc60675481565b6040519081526020015b60405180910390f35b6065546100ff9073ffffffffffffffffffffffffffffffffffffffff1681565b60405173ffffffffffffffffffffffffffffffffffffffff90911681526020016100d6565b610137610132366004610e6e565b6101d0565b005b61014c610147366004610eed565b6103aa565b60405190151581526020016100d6565b610137610ac6565b6100cc610ada565b60335473ffffffffffffffffffffffffffffffffffffffff166100ff565b6066546100ff9073ffffffffffffffffffffffffffffffffffffffff1681565b6101376101b8366004610f9e565b610afc565b6101376101cb366004610fb7565b610b09565b600054610100900460ff16158080156101f05750600054600160ff909116105b8061020a5750303b15801561020a575060005460ff166001145b6102815760405162461bcd60e51b815260206004820152602e60248201527f496e697469616c697a61626c653a20636f6e747261637420697320616c72656160448201527f647920696e697469616c697a656400000000000000000000000000000000000060648201526084015b60405180910390fd5b600080547fffffffffffffffffffffffffffffffffffffffffffffffffffffffffffffff0016600117905580156102df57600080547fffffffffffffffffffffffffffffffffffffffffffffffffffffffffffff00ff166101001790555b610e106067556065805473ffffffffffffffffffffffffffffffffffffffff8086167fffffffffffffffffffffffff0000000000000000000000000000000000000000928316179092556066805492851692909116919091179055610342610ba6565b80156103a557600080547fffffffffffffffffffffffffffffffffffffffffffffffffffffffffffff00ff169055604051600181527f7f26b83ff96e1f2b6a682f133852f6798a09c465da95921460cefb38474024989060200160405180910390a15b505050565b60006103b66000610c2b565b828260058181106103c9576103c9610fd9565b9050602002013560001c6103db610ada565b111561044f5760405162461bcd60e51b815260206004820152603c60248201527f77726f6e672064657465726d696e69737469632076616c75652068617320626560448201527f656e207573656420666f722070726f6f662067656e65726174696f6e000000006064820152608401610278565b60008383600081811061046457610464610fd9565b90506020020135905060008484600281811061048257610482610fd9565b9050602002013590506000858560038181106104a0576104a0610fd9565b9050602002013590506104b58360001c610c2b565b6104be82610c2b565b6104c781610c2b565b6066546040517f44c9af28000000000000000000000000000000000000000000000000000000008152600481018c905260009173ffffffffffffffffffffffffffffffffffffffff16906344c9af289060240160206040518083038186803b15801561053257600080fd5b505afa158015610546573d6000803e3d6000fd5b505050506040513d601f19601f8201168201806040525081019061056a9190611008565b905080156105c1578381146105c15760405162461bcd60e51b815260206004820152601760248201527f557365722073746174652069736e2774206c61746573740000000000000000006044820152606401610278565b6066546040517f44c9af28000000000000000000000000000000000000000000000000000000008152600481018c905260009173ffffffffffffffffffffffffffffffffffffffff16906344c9af289060240160206040518083038186803b15801561062c57600080fd5b505afa158015610640573d6000803e3d6000fd5b505050506040513d601f19601f820116820180604052508101906106649190611008565b905080156109bc576066546040517f557b14420000000000000000000000000000000000000000000000000000000081526004810186905260009173ffffffffffffffffffffffffffffffffffffffff169063557b14429060240160c06040518083038186803b1580156106d757600080fd5b505afa1580156106eb573d6000803e3d6000fd5b505050506040513d601f19601f8201168201806040525081019061070f9190611039565b50945050505050808c1461078b5760405162461bcd60e51b815260206004820152602660248201527f49737375657220737461746520646f65736e277420657869737420696e20636f60448201527f6e747261637400000000000000000000000000000000000000000000000000006064820152608401610278565b8382146109ba576066546040517f557b144200000000000000000000000000000000000000000000000000000000815260048101869052600091829173ffffffffffffffffffffffffffffffffffffffff9091169063557b14429060240160c06040518083038186803b15801561080157600080fd5b505afa158015610815573d6000803e3d6000fd5b505050506040513d601f19601f820116820180604052508101906108399190611039565b5094505050509150806000148061085057508d8114155b156108c35760405162461bcd60e51b815260206004820152602c60248201527f737461746520696e207472616e736974696f6e20696e666f20636f6e7461696e60448201527f7320696e76616c696420696400000000000000000000000000000000000000006064820152608401610278565b816109365760405162461bcd60e51b815260206004820152603860248201527f4e6f6e2d6c617465737420737461746520646f65736e277420636f6e7461696e60448201527f207265706c6163656d656e7420696e666f726d6174696f6e00000000000000006064820152608401610278565b6067546109438342611091565b11156109b75760405162461bcd60e51b815260206004820152602360248201527f497373756572206e6f6e2d7265766f636174696f6e207374617465206578706960448201527f72656400000000000000000000000000000000000000000000000000000000006064820152608401610278565b50505b505b6065546040517fea50d0e400000000000000000000000000000000000000000000000000000000815273ffffffffffffffffffffffffffffffffffffffff9091169063ea50d0e490610a18908d908d908d908d906004016110cf565b60206040518083038186803b158015610a3057600080fd5b505afa158015610a44573d6000803e3d6000fd5b505050506040513d601f19601f82011682018060405250810190610a689190611170565b610ab45760405162461bcd60e51b815260206004820152600d60248201527f4d5450206e6f742076616c6964000000000000000000000000000000000000006044820152606401610278565b5060019b9a5050505050505050505050565b610ace610cbc565b610ad86000610d23565b565b60006067544211610aea57600080fd5b606754610af79042611091565b905090565b610b04610cbc565b606755565b610b11610cbc565b73ffffffffffffffffffffffffffffffffffffffff8116610b9a5760405162461bcd60e51b815260206004820152602660248201527f4f776e61626c653a206e6577206f776e657220697320746865207a65726f206160448201527f64647265737300000000000000000000000000000000000000000000000000006064820152608401610278565b610ba381610d23565b50565b600054610100900460ff16610c235760405162461bcd60e51b815260206004820152602b60248201527f496e697469616c697a61626c653a20636f6e7472616374206973206e6f74206960448201527f6e697469616c697a696e670000000000000000000000000000000000000000006064820152608401610278565b610ad8610d9a565b610ba381604051602401610c4191815260200190565b604080517fffffffffffffffffffffffffffffffffffffffffffffffffffffffffffffffe08184030181529190526020810180517bffffffffffffffffffffffffffffffffffffffffffffffffffffffff167ff82c50f100000000000000000000000000000000000000000000000000000000179052610e20565b60335473ffffffffffffffffffffffffffffffffffffffff163314610ad85760405162461bcd60e51b815260206004820181905260248201527f4f776e61626c653a2063616c6c6572206973206e6f7420746865206f776e65726044820152606401610278565b6033805473ffffffffffffffffffffffffffffffffffffffff8381167fffffffffffffffffffffffff0000000000000000000000000000000000000000831681179093556040519116919082907f8be0079c531659141344cd1fd0a4f28419497f9722a3daafe3b4186f6b6457e090600090a35050565b600054610100900460ff16610e175760405162461bcd60e51b815260206004820152602b60248201527f496e697469616c697a61626c653a20636f6e7472616374206973206e6f74206960448201527f6e697469616c697a696e670000000000000000000000000000000000000000006064820152608401610278565b610ad833610d23565b610ba38160006a636f6e736f6c652e6c6f679050600080835160208501845afa505050565b803573ffffffffffffffffffffffffffffffffffffffff81168114610e6957600080fd5b919050565b60008060408385031215610e8157600080fd5b610e8a83610e45565b9150610e9860208401610e45565b90509250929050565b60008083601f840112610eb357600080fd5b50813567ffffffffffffffff811115610ecb57600080fd5b6020830191508360208260051b8501011115610ee657600080fd5b9250929050565b60008060008060008060808789031215610f0657600080fd5b8635955060208701359450604087013567ffffffffffffffff80821115610f2c57600080fd5b818901915089601f830112610f4057600080fd5b813581811115610f4f57600080fd5b8a6020828501011115610f6157600080fd5b602083019650809550506060890135915080821115610f7f57600080fd5b50610f8c89828a01610ea1565b979a9699509497509295939492505050565b600060208284031215610fb057600080fd5b5035919050565b600060208284031215610fc957600080fd5b610fd282610e45565b9392505050565b7f4e487b7100000000000000000000000000000000000000000000000000000000600052603260045260246000fd5b60006020828403121561101a57600080fd5b5051919050565b805167ffffffffffffffff81168114610e6957600080fd5b60008060008060008060c0878903121561105257600080fd5b865195506020870151945061106960408801611021565b935061107760608801611021565b92506080870151915060a087015190509295509295509295565b6000828210156110ca577f4e487b7100000000000000000000000000000000000000000000000000000000600052601160045260246000fd5b500390565b604081528360408201528385606083013760006060858301015260007fffffffffffffffffffffffffffffffffffffffffffffffffffffffffffffffe0601f860116820160608382030160208401528360608201527f07ffffffffffffffffffffffffffffffffffffffffffffffffffffffffffffff84111561115157600080fd5b8360051b80866080840137600091016080019081529695505050505050565b60006020828403121561118257600080fd5b81518015158114610fd257600080fdfea26469706673582212208bc2e29d6f92b9180446406dec3a08f98e7cf00e899899afdc81933bb0f05d4164736f6c63430008090033",
  "linkReferences": {},
  "deployedLinkReferences": {}
}