{
  "_format": "hh-sol-artifact-1",
  "contractName": "State",
  "sourceName": "src/contracts/State.sol",
  "abi": [
    {
      "anonymous": false,
      "inputs": [
        {
          "indexed": false,
          "internalType": "uint8",
          "name": "version",
          "type": "uint8"
        }
      ],
      "name": "Initialized",
      "type": "event"
    },
    {
      "anonymous": false,
      "inputs": [
        {
          "indexed": true,
          "internalType": "address",
          "name": "previousOwner",
          "type": "address"
        },
        {
          "indexed": true,
          "internalType": "address",
          "name": "newOwner",
          "type": "address"
        }
      ],
      "name": "OwnershipTransferred",
      "type": "event"
    },
    {
      "anonymous": false,
      "inputs": [
        {
          "indexed": false,
          "internalType": "uint256",
          "name": "id",
          "type": "uint256"
        },
        {
          "indexed": false,
          "internalType": "uint64",
          "name": "blockN",
          "type": "uint64"
        },
        {
          "indexed": false,
          "internalType": "uint64",
          "name": "timestamp",
          "type": "uint64"
        },
        {
          "indexed": false,
          "internalType": "bytes32",
          "name": "state",
          "type": "bytes32"
        }
      ],
      "name": "StateUpdated",
      "type": "event"
    },
    {
      "inputs": [
        {
          "internalType": "uint256",
          "name": "id",
          "type": "uint256"
        }
      ],
      "name": "getState",
      "outputs": [
        {
          "internalType": "bytes32",
          "name": "",
          "type": "bytes32"
        }
      ],
      "stateMutability": "view",
      "type": "function"
    },
    {
      "inputs": [
        {
          "internalType": "uint256",
          "name": "id",
          "type": "uint256"
        },
        {
          "internalType": "uint64",
          "name": "blockN",
          "type": "uint64"
        }
      ],
      "name": "getStateDataByBlock",
      "outputs": [
        {
          "internalType": "uint64",
          "name": "",
          "type": "uint64"
        },
        {
          "internalType": "uint64",
          "name": "",
          "type": "uint64"
        },
        {
          "internalType": "bytes32",
          "name": "",
          "type": "bytes32"
        }
      ],
      "stateMutability": "view",
      "type": "function"
    },
    {
      "inputs": [
        {
          "internalType": "uint256",
          "name": "id",
          "type": "uint256"
        }
      ],
      "name": "getStateDataById",
      "outputs": [
        {
          "internalType": "uint64",
          "name": "",
          "type": "uint64"
        },
        {
          "internalType": "uint64",
          "name": "",
          "type": "uint64"
        },
        {
          "internalType": "bytes32",
          "name": "",
          "type": "bytes32"
        }
      ],
      "stateMutability": "view",
      "type": "function"
    },
    {
      "inputs": [
        {
          "internalType": "uint256",
          "name": "id",
          "type": "uint256"
        },
        {
          "internalType": "uint64",
          "name": "timestamp",
          "type": "uint64"
        }
      ],
      "name": "getStateDataByTime",
      "outputs": [
        {
          "internalType": "uint64",
          "name": "",
          "type": "uint64"
        },
        {
          "internalType": "uint64",
          "name": "",
          "type": "uint64"
        },
        {
          "internalType": "bytes32",
          "name": "",
          "type": "bytes32"
        }
      ],
      "stateMutability": "view",
      "type": "function"
    },
    {
      "inputs": [
        {
          "internalType": "bytes32",
          "name": "state",
          "type": "bytes32"
        }
      ],
      "name": "getTransitionInfo",
      "outputs": [
        {
          "internalType": "uint256",
          "name": "",
          "type": "uint256"
        },
        {
          "internalType": "uint256",
          "name": "",
          "type": "uint256"
        },
        {
          "internalType": "uint64",
          "name": "",
          "type": "uint64"
        },
        {
          "internalType": "uint64",
          "name": "",
          "type": "uint64"
        },
        {
          "internalType": "uint256",
          "name": "",
          "type": "uint256"
        },
        {
          "internalType": "bytes32",
          "name": "",
          "type": "bytes32"
        }
      ],
      "stateMutability": "view",
      "type": "function"
    },
    {
      "inputs": [
        {
          "internalType": "uint256",
          "name": "",
          "type": "uint256"
        },
        {
          "internalType": "uint256",
          "name": "",
          "type": "uint256"
        }
      ],
      "name": "identities",
      "outputs": [
        {
          "internalType": "uint64",
          "name": "BlockN",
          "type": "uint64"
        },
        {
          "internalType": "uint64",
          "name": "BlockTimeStamp",
          "type": "uint64"
        },
        {
          "internalType": "bytes32",
          "name": "State",
          "type": "bytes32"
        }
      ],
      "stateMutability": "view",
      "type": "function"
    },
    {
      "inputs": [
        {
          "internalType": "contract IVerifier",
          "name": "_verifierContractAddr",
          "type": "address"
        }
      ],
      "name": "initialize",
      "outputs": [],
      "stateMutability": "nonpayable",
      "type": "function"
    },
    {
      "inputs": [],
      "name": "owner",
      "outputs": [
        {
          "internalType": "address",
          "name": "",
          "type": "address"
        }
      ],
      "stateMutability": "view",
      "type": "function"
    },
    {
      "inputs": [],
      "name": "renounceOwnership",
      "outputs": [],
      "stateMutability": "nonpayable",
      "type": "function"
    },
    {
      "inputs": [
        {
          "internalType": "address",
          "name": "newVerifier",
          "type": "address"
        }
      ],
      "name": "setVerifier",
      "outputs": [],
      "stateMutability": "nonpayable",
      "type": "function"
    },
    {
      "inputs": [
        {
          "internalType": "address",
          "name": "newOwner",
          "type": "address"
        }
      ],
      "name": "transferOwnership",
      "outputs": [],
      "stateMutability": "nonpayable",
      "type": "function"
    },
    {
      "inputs": [
        {
          "internalType": "uint256",
          "name": "id",
          "type": "uint256"
        },
        {
          "internalType": "bool",
          "name": "isOldStateGenesis",
          "type": "bool"
        },
        {
          "internalType": "bytes",
          "name": "_proof",
          "type": "bytes"
        },
        {
          "internalType": "bytes32[]",
          "name": "_publicInputs",
          "type": "bytes32[]"
        }
      ],
      "name": "transitState",
      "outputs": [],
      "stateMutability": "nonpayable",
      "type": "function"
    },
    {
      "inputs": [
        {
          "internalType": "bytes32",
          "name": "",
          "type": "bytes32"
        }
      ],
      "name": "transitions",
      "outputs": [
        {
          "internalType": "uint256",
          "name": "replaceAtTimestamp",
          "type": "uint256"
        },
        {
          "internalType": "uint256",
          "name": "createAtTimestamp",
          "type": "uint256"
        },
        {
          "internalType": "uint64",
          "name": "replacedAtBlock",
          "type": "uint64"
        },
        {
          "internalType": "uint64",
          "name": "createdAtBlock",
          "type": "uint64"
        },
        {
          "internalType": "uint256",
          "name": "id",
          "type": "uint256"
        },
        {
          "internalType": "bytes32",
          "name": "replaceBy",
          "type": "bytes32"
        }
      ],
      "stateMutability": "view",
      "type": "function"
    },
    {
      "inputs": [],
      "name": "verifier",
      "outputs": [
        {
          "internalType": "contract IVerifier",
          "name": "",
          "type": "address"
        }
      ],
      "stateMutability": "view",
      "type": "function"
    }
  ],
  "bytecode": "0x608060405234801561001057600080fd5b50611cbb806100206000396000f3fe608060405234801561001057600080fd5b50600436106100ea5760003560e01c80638da5cb5b1161008c578063c8d1e53e11610066578063c8d1e53e146102df578063d8dcd971146102f2578063e20490b514610305578063f2fde38b1461031857600080fd5b80638da5cb5b14610257578063bc28d95514610275578063c4d66de8146102cc57600080fd5b806352a84a94116100c857806352a84a94146101945780635437988d146101a9578063557b1442146101bc578063715018a61461024f57600080fd5b80630281bec2146100ef5780632b7ac3f31461012e57806344c9af2814610173575b600080fd5b6101026100fd36600461192d565b61032b565b6040805167ffffffffffffffff9485168152939092166020840152908201526060015b60405180910390f35b60655461014e9073ffffffffffffffffffffffffffffffffffffffff1681565b60405173ffffffffffffffffffffffffffffffffffffffff9091168152602001610125565b61018661018136600461196a565b6107bd565b604051908152602001610125565b6101a76101a23660046119dd565b61081d565b005b6101a76101b7366004611ab9565b6110c7565b6102146101ca36600461196a565b600090815260676020526040902080546001820154600283015460038401546004909401549294919367ffffffffffffffff80831694680100000000000000009093041692909190565b60408051968752602087019590955267ffffffffffffffff9384169486019490945291166060840152608083015260a082015260c001610125565b6101a7611116565b60335473ffffffffffffffffffffffffffffffffffffffff1661014e565b61021461028336600461196a565b606760205260009081526040902080546001820154600283015460038401546004909401549293919267ffffffffffffffff808316936801000000000000000090930416919086565b6101a76102da366004611ab9565b61112a565b6101026102ed36600461196a565b6112e3565b61010261030036600461192d565b611393565b610102610313366004611add565b611655565b6101a7610326366004611ab9565b6116ac565b6000806000428467ffffffffffffffff161061038e5760405162461bcd60e51b815260206004820152601260248201527f6572724e6f467574757265416c6c6f776564000000000000000000000000000060448201526064015b60405180910390fd5b6000858152606660205260409020546103af575060009150819050806107b6565b600085815260666020526040812080546103cb90600190611b2e565b815481106103db576103db611b45565b600091825260209091206002909102015467ffffffffffffffff680100000000000000009091048116915085168110156104fb576000868152606660205260409020805461042b90600190611b2e565b8154811061043b5761043b611b45565b6000918252602080832060029092029091015488835260669091526040909120805467ffffffffffffffff9092169161047690600190611b2e565b8154811061048657610486611b45565b60009182526020808320600292909202909101548983526066909152604090912080546801000000000000000090920467ffffffffffffffff16916104cd90600190611b2e565b815481106104dd576104dd611b45565b906000526020600020906002020160010154935093509350506107b6565b600086815260666020526040812054819061051890600190611b2e565b90505b8082116107a857600060026105308484611b74565b61053a9190611b8c565b60008a8152606660205260409020805491925067ffffffffffffffff8a16918390811061056957610569611b45565b600091825260209091206002909102015468010000000000000000900467ffffffffffffffff1614156106605760008981526066602052604090208054829081106105b6576105b6611b45565b600091825260208083206002909202909101548b835260669091526040909120805467ffffffffffffffff90921691839081106105f5576105f5611b45565b906000526020600020906002020160000160089054906101000a900467ffffffffffffffff16606660008c8152602001908152602001600020838154811061063f5761063f611b45565b906000526020600020906002020160010154965096509650505050506107b6565b600089815260666020526040902080548290811061068057610680611b45565b600091825260209091206002909102015467ffffffffffffffff68010000000000000000909104811690891611801561070b575060008981526066602052604090206106cd826001611b74565b815481106106dd576106dd611b45565b600091825260209091206002909102015467ffffffffffffffff680100000000000000009091048116908916105b156107305760008981526066602052604090208054829081106105b6576105b6611b45565b600089815260666020526040902080548290811061075057610750611b45565b600091825260209091206002909102015467ffffffffffffffff68010000000000000000909104811690891611156107945761078d816001611b74565b92506107a2565b61079f600182611b2e565b91505b5061051b565b506000945084935083925050505b9250925092565b6000818152606660205260408120546107d857506000919050565b600082815260666020526040902080546107f490600190611b2e565b8154811061080457610804611b45565b9060005260206000209060020201600101549050919050565b6002811461086d5760405162461bcd60e51b815260206004820152601c60248201527f7075626c696320696e707574732073697a65206d7573742062652032000000006044820152606401610385565b60008282600081811061088257610882611b45565b9050602002013590506000838360018181106108a0576108a0611b45565b602002919091013591505086610b10576000888152606660205260409020546109575760405162461bcd60e51b815260206004820152605d60248201527f74686572652073686f756c64206265206174206c65617374206f6e652073746160448201527f746520666f72206964656e7469747920696e20736d61727420636f6e7472616360648201527f74207768656e2069734f6c64537461746547656e65736973203d3d2030000000608482015260a401610385565b6000888152606660205260408120805461097390600190611b2e565b8154811061098357610983611b45565b6000918252602091829020604080516060810182526002909302909101805467ffffffffffffffff80821680865268010000000000000000909204169484019490945260010154908201529150431415610a455760405162461bcd60e51b815260206004820152602160248201527f6e6f206d756c7469706c652073657420696e207468652073616d6520626c6f6360448201527f6b000000000000000000000000000000000000000000000000000000000000006064820152608401610385565b82816040015114610b0a5760405162461bcd60e51b815260206004820152606c60248201527f6f6c64537461746520617267756d656e742073686f756c64206265206571756160448201527f6c20746f20746865206c6174657374206964656e74697479207374617465206960648201527f6e20736d61727420636f6e7472616374207768656e2069734f6c64537461746560848201527f47656e65736973203d3d2030000000000000000000000000000000000000000060a482015260c401610385565b50610cb8565b60008881526066602052604090205415610bb85760405162461bcd60e51b815260206004820152605460248201527f54686572652073686f756c64206265206e6f2073746174657320666f7220696460448201527f656e7469747920696e20736d61727420636f6e7472616374207768656e20697360648201527f4f6c64537461746547656e65736973203d3d2031000000000000000000000000608482015260a401610385565b60008281526067602052604090206003015415610c175760405162461bcd60e51b815260206004820152601960248201527f6f6c6453746174652073686f756c64206e6f74206578697374000000000000006044820152606401610385565b60008281526067602090815260408083206003018b90558a83526066825280832081516060810183528481528084018581529281018781528254600181810185559387529490952090516002909402018054925167ffffffffffffffff90811668010000000000000000027fffffffffffffffffffffffffffffffff0000000000000000000000000000000090941694169390931791909117825591519101555b60008181526067602052604090206003015415610d175760405162461bcd60e51b815260206004820152601960248201527f6e657753746174652073686f756c64206e6f74206578697374000000000000006044820152606401610385565b6065546040517fea50d0e400000000000000000000000000000000000000000000000000000000815273ffffffffffffffffffffffffffffffffffffffff9091169063ea50d0e490610d73908990899089908990600401611bc7565b60206040518083038186803b158015610d8b57600080fd5b505afa158015610d9f573d6000803e3d6000fd5b505050506040513d601f19601f82011682018060405250810190610dc39190611c68565b610e355760405162461bcd60e51b815260206004820152603560248201527f7a65726f2d6b6e6f776c656467652070726f6f66206f6620737461746520747260448201527f616e736974696f6e206973206e6f742076616c696400000000000000000000006064820152608401610385565b6066600089815260200190815260200160002060405180606001604052804367ffffffffffffffff1681526020014267ffffffffffffffff16815260200183815250908060018154018082558091505060019003906000526020600020906002020160009091909190915060008201518160000160006101000a81548167ffffffffffffffff021916908367ffffffffffffffff16021790555060208201518160000160086101000a81548167ffffffffffffffff021916908367ffffffffffffffff1602179055506040820151816001015550506040518060c0016040528060008152602001428152602001600067ffffffffffffffff1681526020014267ffffffffffffffff1681526020018981526020016000801b81525060676000838152602001908152602001600020600082015181600001556020820151816001015560408201518160020160006101000a81548167ffffffffffffffff021916908367ffffffffffffffff16021790555060608201518160020160086101000a81548167ffffffffffffffff021916908367ffffffffffffffff1602179055506080820151816003015560a08201518160040155905050426067600084815260200190815260200160002060000181905550436067600084815260200190815260200160002060020160006101000a81548167ffffffffffffffff021916908367ffffffffffffffff1602179055508060676000848152602001908152602001600020600401819055507f06b9b9fdcf2efd173cf11cad9d611793cc9efcb5a54df1af3c7e515ef2791f65884342846040516110b5949392919093845267ffffffffffffffff928316602085015291166040830152606082015260800190565b60405180910390a15050505050505050565b6110cf611749565b606580547fffffffffffffffffffffffff00000000000000000000000000000000000000001673ffffffffffffffffffffffffffffffffffffffff92909216919091179055565b61111e611749565b61112860006117b0565b565b600054610100900460ff161580801561114a5750600054600160ff909116105b806111645750303b158015611164575060005460ff166001145b6111d65760405162461bcd60e51b815260206004820152602e60248201527f496e697469616c697a61626c653a20636f6e747261637420697320616c72656160448201527f647920696e697469616c697a65640000000000000000000000000000000000006064820152608401610385565b600080547fffffffffffffffffffffffffffffffffffffffffffffffffffffffffffffff00166001179055801561123457600080547fffffffffffffffffffffffffffffffffffffffffffffffffffffffffffff00ff166101001790555b606580547fffffffffffffffffffffffff00000000000000000000000000000000000000001673ffffffffffffffffffffffffffffffffffffffff841617905561127c611827565b80156112df57600080547fffffffffffffffffffffffffffffffffffffffffffffffffffffffffffff00ff169055604051600181527f7f26b83ff96e1f2b6a682f133852f6798a09c465da95921460cefb38474024989060200160405180910390a15b5050565b600081815260666020526040812054819081906113085750600091508190508061138c565b6000848152606660205260408120805461132490600190611b2e565b8154811061133457611334611b45565b6000918252602091829020604080516060810182526002909302909101805467ffffffffffffffff80821680865268010000000000000000909204169484018590526001909101549290910182905295509093509150505b9193909250565b6000806000438467ffffffffffffffff16106113f15760405162461bcd60e51b815260206004820152601260248201527f6572724e6f467574757265416c6c6f77656400000000000000000000000000006044820152606401610385565b600085815260666020526040902054611412575060009150819050806107b6565b6000858152606660205260408120805461142e90600190611b2e565b8154811061143e5761143e611b45565b600091825260209091206002909102015467ffffffffffffffff90811691508516811015611482576000868152606660205260409020805461042b90600190611b2e565b600086815260666020526040812054819061149f90600190611b2e565b90505b8082116107a857600060026114b78484611b74565b6114c19190611b8c565b60008a8152606660205260409020805491925067ffffffffffffffff8a1691839081106114f0576114f0611b45565b600091825260209091206002909102015467ffffffffffffffff1614156115315760008981526066602052604090208054829081106105b6576105b6611b45565b600089815260666020526040902080548290811061155157611551611b45565b600091825260209091206002909102015467ffffffffffffffff9081169089161180156115c457506000898152606660205260409020611592826001611b74565b815481106115a2576115a2611b45565b600091825260209091206002909102015467ffffffffffffffff908116908916105b156115e95760008981526066602052604090208054829081106105b6576105b6611b45565b600089815260666020526040902080548290811061160957611609611b45565b600091825260209091206002909102015467ffffffffffffffff90811690891611156116415761163a816001611b74565b925061164f565b61164c600182611b2e565b91505b506114a2565b6066602052816000526040600020818154811061167157600080fd5b60009182526020909120600290910201805460019091015467ffffffffffffffff808316945068010000000000000000909204909116915083565b6116b4611749565b73ffffffffffffffffffffffffffffffffffffffff811661173d5760405162461bcd60e51b815260206004820152602660248201527f4f776e61626c653a206e6577206f776e657220697320746865207a65726f206160448201527f64647265737300000000000000000000000000000000000000000000000000006064820152608401610385565b611746816117b0565b50565b60335473ffffffffffffffffffffffffffffffffffffffff1633146111285760405162461bcd60e51b815260206004820181905260248201527f4f776e61626c653a2063616c6c6572206973206e6f7420746865206f776e65726044820152606401610385565b6033805473ffffffffffffffffffffffffffffffffffffffff8381167fffffffffffffffffffffffff0000000000000000000000000000000000000000831681179093556040519116919082907f8be0079c531659141344cd1fd0a4f28419497f9722a3daafe3b4186f6b6457e090600090a35050565b600054610100900460ff166118a45760405162461bcd60e51b815260206004820152602b60248201527f496e697469616c697a61626c653a20636f6e7472616374206973206e6f74206960448201527f6e697469616c697a696e670000000000000000000000000000000000000000006064820152608401610385565b611128600054610100900460ff166119245760405162461bcd60e51b815260206004820152602b60248201527f496e697469616c697a61626c653a20636f6e7472616374206973206e6f74206960448201527f6e697469616c697a696e670000000000000000000000000000000000000000006064820152608401610385565b611128336117b0565b6000806040838503121561194057600080fd5b82359150602083013567ffffffffffffffff8116811461195f57600080fd5b809150509250929050565b60006020828403121561197c57600080fd5b5035919050565b801515811461174657600080fd5b60008083601f8401126119a357600080fd5b50813567ffffffffffffffff8111156119bb57600080fd5b6020830191508360208260051b85010111156119d657600080fd5b9250929050565b600080600080600080608087890312156119f657600080fd5b863595506020870135611a0881611983565b9450604087013567ffffffffffffffff80821115611a2557600080fd5b818901915089601f830112611a3957600080fd5b813581811115611a4857600080fd5b8a6020828501011115611a5a57600080fd5b602083019650809550506060890135915080821115611a7857600080fd5b50611a8589828a01611991565b979a9699509497509295939492505050565b73ffffffffffffffffffffffffffffffffffffffff8116811461174657600080fd5b600060208284031215611acb57600080fd5b8135611ad681611a97565b9392505050565b60008060408385031215611af057600080fd5b50508035926020909101359150565b7f4e487b7100000000000000000000000000000000000000000000000000000000600052601160045260246000fd5b600082821015611b4057611b40611aff565b500390565b7f4e487b7100000000000000000000000000000000000000000000000000000000600052603260045260246000fd5b60008219821115611b8757611b87611aff565b500190565b600082611bc2577f4e487b7100000000000000000000000000000000000000000000000000000000600052601260045260246000fd5b500490565b604081528360408201528385606083013760006060858301015260007fffffffffffffffffffffffffffffffffffffffffffffffffffffffffffffffe0601f860116820160608382030160208401528360608201527f07ffffffffffffffffffffffffffffffffffffffffffffffffffffffffffffff841115611c4957600080fd5b8360051b80866080840137600091016080019081529695505050505050565b600060208284031215611c7a57600080fd5b8151611ad68161198356fea26469706673582212204114d46c50543bf1fb788d9756ae61666ae4bb1c059d8f0ae8ccc3d1f61ac75a64736f6c63430008090033",
  "linkReferences": {},
  "deployedLinkReferences": {}
}